:100000000C946F000C9497000C9497000C9497003C
:100010000C9497000C9497000C9497000C94970004
:100020000C9497000C9497000C9497000C949700F4
:100030000C9497000C9497000C9497000C949700E4
:100040000C948B040C9497000C9459040C94330476
:100050000C9497000C9497000C9497000C949700C4
:100060000C94D5040C949700084AD73B3BCE016E04
:1000700084BCBFFDC12F3D6C74319ABD56833DDAFF
:100080003D00C77F11BED9E4BB4C3E916BAAAABE0E
:10009000000000803F0000000000250028002B0029
:1000A000040404040404040402020202020203031E
:1000B0000303030301020408102040800102040826
:1000C00010200102040810200000000800020100B6
:1000D00000030407000000000000000003061124D4
:1000E0001FBECFEFD8E0DEBFCDBF11E0A0E0B1E092
:1000F000E8E0F6E102C005900D92A433B107D9F70C
:1001000022E0A4E3B1E001C01D92AD3DB207E1F7EA
:1001100010E0CFE6D0E004C02197FE010E94200845
:10012000CE36D107C9F70E943C060C94020B0C9402
:100130000000E4E3F2E0A089B18982E08C93A48519
:10014000B5851C92A685B7858FEC8C93108EA489FB
:10015000B58986E08C93A289B3898C9180618C9358
:10016000A289B3898C9188608C93A289B3898C9180
:1001700080688C930288F389E02D80818F7D808355
:100180000895382F2091330290913202213208F0E5
:1001900049C080910F028111FCCF42E040930F02D1
:1001A00030930E023FEF30930D0210920C02209319
:1001B0000B02A2E1B2E04BEE51E0FA013E2F341BFC
:1001C000321718F43D913193F9CF1092EA01209142
:1001D000EA01990F922B9093EA019091E9019130F5
:1001E00061F41092E9019091EA019093BB00909123
:1001F000BC0093FDF8CF95EC01C095EE9093BC0048
:1002000090910F029230E1F390910D029F3F79F0AF
:1002100080910D02803241F080910D02803331F0E7
:1002200084E005C081E003C082E001C083E0109259
:1002300011021092330210921002089590E0FC0116
:10024000E853FF4F2491FC01EC54FF4F3491FC0123
:10025000E056FF4FE491EE23B1F1222339F1233030
:1002600091F038F42130A9F0223001F584B58F7D6A
:1002700012C0273091F02830A1F02430B9F48091D9
:1002800080008F7D03C0809180008F7780938000F5
:100290000DC084B58F7784BD09C08091B0008F7781
:1002A00003C08091B0008F7D8093B000F0E0EE0F2E
:1002B000FF1FEA56FF4FA591B4918FB7F894EC91C8
:1002C0003E2B3C938FBF0895CF92DF92EF92FF9227
:1002D0000F931F93CF93DF936C017A018B01C0E0E2
:1002E000D0E0CE15DF0589F0D8016D918D01D601E2
:1002F000ED91FC910190F081E02DC6010995892BCB
:1003000011F47E0102C02196ECCFC701DF91CF919D
:100310001F910F91FF90EF90DF90CF900895FC0117
:10032000918D828D981761F0828DDF01A80FB11D2C
:100330005D968C91928D9F5F9F73928F90E0089550
:100340008FEF9FEF0895FC01918D828D981731F00A
:10035000828DE80FF11D858D90E008958FEF9FEF5E
:100360000895FC01918D228D892F90E0805C9F4F34
:10037000821B91098F739927089584E392E00E946C
:10038000B10121E0892B09F420E0822F0895FC01BE
:10039000848DDF01A80FB11DA35ABF4F2C91848D0E
:1003A00090E001968F739927848FA689B7892C9343
:1003B000A089B1898C9180648C93938D848D9813DE
:1003C00006C00288F389E02D80818F7D80830895A7
:1003D000EF92FF920F931F93CF93DF93EC0181E095
:1003E000888F9B8D8C8D981305C0E889F989808151
:1003F00085FD24C0F62E0B8D10E00F5F1F4F0F738D
:100400001127E02E8C8DE8120CC00FB607FCFACF36
:10041000E889F989808185FFF5CFCE010E94C70167
:10042000F1CF8B8DFE01E80FF11DE35AFF4FF082F3
:100430000B8FEA89FB898081806207C0EE89FF8982
:100440006083E889F98980818064808381E090E01D
:10045000DF91CF911F910F91FF90EF900895CF936F
:10046000DF93EC01888D8823C9F0EA89FB898081BC
:1004700085FD05C0A889B9898C9186FD0FC00FB68E
:1004800007FCF5CF808185FFF2CFA889B9898C91CF
:1004900085FFEDCFCE010E94C701E7CFDF91CF915D
:1004A000089580E090E0892B29F00E94BD01811120
:1004B0000C94000008953FB7F89480917C019091CE
:1004C0007D01A0917E01B0917F0126B5A89B05C05A
:1004D0002F3F19F00196A11DB11D3FBFBA2FA92FC3
:1004E000982F8827820F911DA11DB11DBC01CD0140
:1004F00042E0660F771F881F991F4A95D1F708952C
:100500008F929F92AF92BF92CF92DF92EF92FF9223
:100510006B017C010E945B024B015C01C114D104A0
:10052000E104F104F1F00E945B02DC01CB018819C7
:100530009909AA09BB09883E9340A105B10570F34A
:1005400021E0C21AD108E108F10888EE880E83E0A4
:10055000981EA11CB11CC114D104E104F10419F7C7
:10056000DDCFFF90EF90DF90CF90BF90AF909F9046
:100570008F90089585ED8093BC008091BC0084FD30
:10058000FCCF10920F02089540915601262F30E0C3
:10059000240F311D21323105DCF420910F0224306B
:1005A000C9F4FC0180E090E0861758F430915601C0
:1005B0002191DC01AC5CBE4FA30FB11D2C930196C1
:1005C000F3CF80915601680F6093560180E0089543
:1005D00081E0089582E008950895E091BC01809142
:1005E000BB01E81730F4F0E0E354FE4F808190E067
:1005F00008958FEF9FEF08959091BC018091BB010A
:10060000981750F4E92FF0E0E354FE4F208130E0DA
:100610009F5F9093BC0102C02FEF3FEFC901089587
:100620008091BB0190E02091BC01821B910908954B
:10063000CF92DF92EF92FF920F931F93CF93DF93AE
:100640007C01262F972F8A0180911002882391F038
:10065000C62FD72F6E01C40ED51ECC15DD0571F047
:100660006991D701ED91FC910190F081E02DC701D6
:100670000995F3CF642F822F0E94C402C801DF9135
:10068000CF911F910F91FF90EF90DF90CF90089541
:10069000CF93DF931F92CDB7DEB76983209110020D
:1006A0002223D1F020913302203240F021E030E0CB
:1006B000FC013383228380E090E015C08091110219
:1006C000E82FF0E0EE5EFD4F998190838F5F80937D
:1006D00011028093330205C061E0CE0101960E94B1
:1006E000C40281E090E00F90DF91CF9108956115F1
:1006F000710579F0FB0101900020E9F73197AF0116
:10070000461B570BDC01ED91FC910280F381E02D3B
:10071000099480E090E008954F925F926F927F92EB
:10072000EF92FF920F931F93CF93DF93CDB7DEB776
:10073000A1970FB6F894DEBF0FBECDBF7C01FA01C2
:10074000CB0119A2223008F42AE08E010F5D1F4F61
:10075000422E512C612C712CBF01A30192010E94E9
:10076000E00AF901CA01015011096A3014F4605D10
:1007700001C0695CD8016C93232B242B252B61F7D6
:10078000B801C7010E947703A1960FB6F894DEBFA7
:100790000FBECDBFDF91CF911F910F91FF90EF90D2
:1007A0007F906F905F904F900895CF92DF92EF927D
:1007B000FF92CF93DF936B017C01E0913402F091C3
:1007C00035020190F081E02D6DE284E392E009951D
:1007D000EC0144275527BA014C195D096E097F09C0
:1007E0002AE084E392E00E948C038C0F9D1FDF912E
:1007F000CF91FF90EF90DF90CF9008950E94E00995
:100800000F931F93CF93DF9300D000D0CDB7DEB707
:100810008B01BC01990F880B990B0E94E7099B0182
:10082000AC01B801110F880B990B29833A834B83D4
:100830005C830E94E70929813A814B815C810E9497
:10084000390821EE3EE245E652E40E94220A0E9467
:100850000609CB010F900F900F900F90DF91CF9171
:100860001F910F9108951F920F920FB60F921124AE
:100870002F933F934F935F936F937F938F939F93A8
:10088000AF93BF93EF93FF9384E392E00E94C7017D
:10089000FF91EF91BF91AF919F918F917F916F9158
:1008A0005F914F913F912F910F900FBE0F901F902E
:1008B00018951F920F920FB60F9211242F938F93BA
:1008C0009F93EF93FF93E0914402F0914502808162
:1008D000E0914A02F0914B0282FD12C0908180911A
:1008E0004D028F5F8F7320914E02821751F0E0917D
:1008F0004D02F0E0EC5CFD4F958F80934D0201C0FE
:100900008081FF91EF919F918F912F910F900FBE5A
:100910000F901F9018951F920F920FB60F921124EF
:100920002F933F938F939F93AF93BF9380918001B9
:1009300090918101A0918201B091830130917B015E
:1009400023E0230F2D3720F40196A11DB11D05C012
:1009500026E8230F0296A11DB11D20937B018093F1
:10096000800190938101A0938201B09383018091D3
:100970007C0190917D01A0917E01B0917F01019653
:10098000A11DB11D80937C0190937D01A0937E01F8
:10099000B0937F01BF91AF919F918F913F912F9124
:1009A0000F900FBE0F901F9018951F920F920FB6C9
:1009B0000F9211242F933F934F935F936F937F93E5
:1009C0008F939F93AF93BF93EF93FF938091B90061
:1009D000887F803609F49CC068F5883209F45BC0D2
:1009E00090F4803109F454C038F4882309F4F6C037
:1009F000883009F44DC0F6C0883109F44CC080320B
:100A000009F45DC0EFC0803409F468C048F4803355
:100A100009F455C0883309F0E5C080930D02D8C0B1
:100A2000803509F44FC0883509F45DC0883409F079
:100A3000D9C0D6C0883909F4C7C0A8F4883709F4EA
:100A400067C038F4883609F463C0803709F460C0A1
:100A5000C9C0883809F4B8C0803909F45FC080384B
:100A600009F0C0C05BC0803B09F486C038F4803A0E
:100A700009F466C0883A09F47FC0B4C0803C09F428
:100A8000A7C0883C09F4A4C0883B09F48AC0AAC066
:100A90008091EA0110C090910C0280910B0298178E
:100AA00070F5E0910C0281E08E0F80930C02F0E073
:100AB000E551FE4F80818093BB0085EC86C080931A
:100AC0000D028EC0E0910C0281E08E0F80930C022B
:100AD0008091BB00F0E0E551FE4F808390910C02C5
:100AE00080910B026EC0E0910C0281E08E0F80932A
:100AF0000C028091BB00F0E0E551FE4F80838091B5
:100B00000E0281116DC081E08093E90184EA61C029
:100B100083E080930F0210927A01CFCF80917A0107
:100B2000803208F051C0E0917A0181E08E0F80930D
:100B30007A018091BB00F0E0E65AFE4F8083BDCF82
:100B400085EC8093BC0010920F0280917A01803274
:100B500030F4E0917A01F0E0E65AFE4F10826091A5
:100B60007A0170E0E0915801F09159018AE591E035
:100B7000099510927A0136C084E080930F0210929A
:100B8000570110925601E0915401F09155010995D9
:100B900080915601811105C081E080935601109229
:100BA0003401E091570181E08E0F80935701F0E00E
:100BB000EC5CFE4F80818093BB0090915701809147
:100BC0005601981708F479CF85E88093BC000AC0D5
:100BD00085EC8093BC0010920F0204C010920D02AD
:100BE0000E94BA02FF91EF91BF91AF919F918F91B7
:100BF0007F916F915F914F913F912F910F900FBE19
:100C00000F901F901895E4E3F2E01382128288EEB1
:100C100093E0A0E0B0E084839583A683B78324E0CB
:100C200031E03183208325EC30E03587248724ECC4
:100C300030E03787268720EC30E0318B208B21ECA9
:100C400030E0338B228B22EC30E0358B248B26EC8A
:100C500030E0378B268B118E128E138E148EE1EDC1
:100C6000F2E01382128284839583A683B78384E1A2
:100C700091E0918380830895789484B5826084BDE7
:100C800084B5816084BD85B5826085BD85B5816090
:100C900085BD80916E00816080936E00109281000E
:100CA00080918100826080938100809181008160C9
:100CB000809381008091800081608093800080918A
:100CC000B10084608093B1008091B0008160809316
:100CD000B00080917A00846080937A0080917A00DD
:100CE000826080937A0080917A00816080937A009C
:100CF00080917A00806880937A001092C1001092EF
:100D0000B7011092B8011092B9011092BA01109275
:100D1000850110928601109287011092880160ED82
:100D200077E080E090E00E94800284E392E090937C
:100D3000B6018093B5010E9499002FB7F894809175
:100D4000800190918101A0918201B09183012FBF18
:100D500040918501509186016091870170918801D1
:100D6000841B950BA60BB70BC297A105B10538F4F0
:100D700063E070E080E090E00E948002DECF2FB759
:100D8000F8948091800190918101A0918201B091AD
:100D900083012FBF8093850190938601A0938701E3
:100DA000B093880160E271E08091B5019091B60145
:100DB0000E9477036AE070E080E090E00E94800289
:100DC000C1E0C09389011092BC011092BB01109246
:100DD00011021092330210920F02C0930E02109271
:100DE000E90182E10E941E0183E10E941E018091BF
:100DF000B9008E7F8093B9008091B9008D7F809378
:100E0000B90088E48093B80085E48093BC00C09367
:100E1000100288E68093320210921102109233027F
:100E20006BE681ED92E00E94480360E081ED92E084
:100E30000E94480381E00E94C1000E94990055244D
:100E4000539485E0282E95EE392E25EC422E5092B3
:100E5000100228E6209332021092110210923302FF
:100E60006BE381ED92E00E94480380E00E94C100A4
:100E700080910F028111FCCF50920F0250920E020E
:100E80003FEF30930D0210920C0220920B02509211
:100E9000EA018091EA01806D8093EA018091E90185
:100EA000813069F41092E9018091EA018093BB00DE
:100EB0008091BC0083FDF8CF4092BC0002C030920C
:100EC000BC0080910F028130E1F380910C028630EA
:100ED00018F480910C0201C086E0ABEEB1E0EDEBBE
:100EE000F1E09E2F2DEB31E0921B981718F49D91A5
:100EF0009193F7CF1092BC018093BB0181ED92E0FA
:100F00000E94FC02C82F81ED92E00E94FC02FC2EA0
:100F1000E12C8701082B192B1093E8010093E701BE
:100F200081ED92E00E94FC02C82F81ED92E00E94C8
:100F3000FC02DC2EC12CE601C82BD92BD093E60194
:100F4000C093E50181ED92E00E94FC02982E81EDB4
:100F500092E00E94FC02B92CA12C4501882A992A12
:100F60009092E4018092E301B401C8010E94000460
:100F70003C019093E2018093E101B801CE010E940F
:100F800000049093E0018093DF01B401CE010E9440
:100F900000049093DE018093DD01A301770C660BC2
:100FA000770B77FF05C0CB01BA010E94D50305C0BE
:100FB0002AE084E392E00E948C0362E371E084E320
:100FC00092E00E9477034091DF015091E001052EED
:100FD000000C660B770B77FF05C0CB01BA010E94AE
:100FE000D50305C02AE084E392E00E948C0362E30B
:100FF00071E084E392E00E9477034091DD0150911B
:10100000DE01052E000C660B770B77FF05C0CB01C8
:10101000BA010E94D50305C02AE084E392E00E9451
:101020008C036FE271E084E392E00E94770364E650
:1010300070E080E090E00E9480020E94510207CFA1
:10104000EE0FFF1F0590F491E02D09940E94980A7D
:1010500060F080E891E009F49EEF0E949F0A28F07A
:1010600040E851E071F45EEF0CC00C94950A0C94CA
:10107000D90AE92FE0780E94B70A40F3092E052A21
:10108000B1F3261737074807590738F00E2E07F82F
:10109000E02569F0E025E0640AC0EF6307F80094FA
:1010A00007FADB01B9019D01DC01CA01AD01EF9333
:1010B0000E94AB080E94A60A0E9469085F9155230E
:1010C00039F02BED3FE049E450FD49EC0C947009F8
:1010D0000895DF93DD27B92FBF7740E85FE3161649
:1010E000170648075B0718F4D92F0E9463099F93DE
:1010F0008F937F936F930E946B09E8E6F0E00E9464
:101100003C090E94A60A2F913F914F915F910E9446
:10111000350ADD2351F09058A2EA2AED3FE049EC70
:101120005FE3D0785D270E948709DF910C94A60ABF
:101130000E949F0A58F00E94980A40F029F45F3FED
:1011400029F00C948F0A51110C94DA0A0C94950A28
:101150000E94B70A68F39923B1F3552391F3951BC5
:10116000550BBB27AA2762177307840738F09F5FC8
:101170005F4F220F331F441FAA1FA9F335D00E2E35
:101180003AF0E0E832D091505040E695001CCAF7A2
:101190002BD0FE2F29D0660F771F881FBB1F261765
:1011A00037074807AB07B0E809F0BB0B802DBF013C
:1011B000FF2793585F4F3AF09E3F510578F00C940B
:1011C0008F0A0C94DA0A5F3FE4F3983ED4F38695D5
:1011D00077956795B795F7959F5FC9F7880F911D2C
:1011E0009695879597F90895E1E0660F771F881F18
:1011F000BB1F621773078407BA0720F0621B730BCB
:10120000840BBA0BEE1F88F7E09508950E940D0934
:101210006894B1110C94DA0A08950E94BF0A88F00C
:101220009F5798F0B92F9927B751B0F0E1F0660FAA
:10123000771F881F991F1AF0BA95C9F714C0B130EB
:1012400091F00E94D90AB1E008950C94D90A672F51
:10125000782F8827B85F39F0B93FCCF3869577951A
:101260006795B395D9F73EF4909580957095619503
:101270007F4F8F4F9F4F0895DF93CF931F930F930F
:10128000FF92EF92DF927B018C01689406C0DA2E08
:10129000EF010E94350AFE01E894A5912591359150
:1012A00045915591A6F3EF010E948709FE01970130
:1012B000A801DA9469F7DF90EF90FF900F911F91EA
:1012C000CF91DF9108959B01AC0160E070E080E870
:1012D0009FE30C94DC099B01AC010C94220A50584A
:1012E000BB27AA270E9487090C94A60A0E94980A85
:1012F00038F00E949F0A20F039F49F3F19F426F439
:101300000C94950A0EF4E095E7FB0C948F0AE92FF4
:101310000E94B70A58F3BA17620773078407950744
:1013200020F079F4A6F50C94D90A0EF4E0950B2E72
:10133000BA2FA02D0B01B90190010C01CA01A00127
:101340001124FF27591B99F0593F50F4503E68F182
:101350001A16F040A22F232F342F4427585FF3CFC3
:10136000469537952795A795F0405395C9F77EF494
:101370001F16BA0B620B730B840BBAF09150A1F0DD
:10138000FF0FBB1F661F771F881FC2F70EC0BA0F63
:10139000621F731F841F48F4879577956795B795EB
:1013A000F7959E3F08F0B0CF9395880F08F09927E6
:1013B000EE0F9795879508950E94A8080C94A60AA9
:1013C00081E090E0F8940C94020BE89409C097FB3C
:1013D0003EF490958095709561957F4F8F4F9F4F0C
:1013E0009923A9F0F92F96E9BB279395F695879550
:1013F00077956795B795F111F8CFFAF4BB0F11F413
:1014000060FF1BC06F5F7F4F8F4F9F4F16C08823B9
:1014100011F096E911C0772321F09EE8872F762FEF
:1014200005C0662371F096E8862F70E060E02AF030
:101430009A95660F771F881FDAF7880F969587951C
:1014400097F908950E94350A0C94A60A0E94980AFA
:1014500038F00E949F0A20F0952311F00C948F0A17
:101460000C94950A11240C94DA0A0E94B70A70F3BE
:10147000959FC1F3950F50E0551F629FF001729F39
:10148000BB27F00DB11D639FAA27F00DB11DAA1F48
:10149000649F6627B00DA11D661F829F2227B00D95
:1014A000A11D621F739FB00DA11D621F839FA00D20
:1014B000611D221F749F3327A00D611D231F849F70
:1014C000600D211D822F762F6A2F11249F575040C7
:1014D0009AF0F1F088234AF0EE0FFF1FBB1F661F42
:1014E000771F881F91505040A9F79E3F510580F00B
:1014F0000C948F0A0C94DA0A5F3FE4F3983ED4F31D
:10150000869577956795B795F795E7959F5FC1F7AE
:10151000FE2B880F911D9695879597F9089597F959
:101520009F6780E870E060E008959FEF80EC089589
:1015300000240A94161617061806090608950024B2
:101540000A9412161306140605060895092E03942C
:10155000000C11F4882352F0BB0F40F4BF2B11F4A0
:1015600060FF04C06F5F7F4F8F4F9F4F089557FDFF
:101570009058440F551F59F05F3F71F04795880F01
:1015800097FB991F61F09F3F79F087950895121698
:1015900013061406551FF2CF4695F1DF08C0161644
:1015A00017061806991FF1CF8695710561050894F5
:1015B0000895E894BB2766277727CB0197F908950C
:1015C000A1E21A2EAA1BBB1BFD010DC0AA1FBB1F47
:1015D000EE1FFF1FA217B307E407F50720F0A21BB9
:1015E000B30BE40BF50B661F771F881F991F1A9426
:1015F00069F760957095809590959B01AC01BD0150
:08160000CF010895F894FFCF1B
:1016080000000000E8016401B1018F01A3012F026D
:1016180000000000480318031003FC02ED02EC026E
:10162800564D4450565F317C315F564D4450560DEF
:041638000A007C0028
:00000001FF
