:100000000C945D000C9485000C9485000C94850084
:100010000C9485000C9485000C9485000C9485004C
:100020000C9485000C9485000C9485000C9485003C
:100030000C9485000C9485000C9485000C9485002C
:100040000C9483020C9485000C9451020C942B02A6
:100050000C9485000C9485000C9485000C9485000C
:100060000C9485000C94850000000008000201003B
:100070000003040700000000000000000000000072
:10008000250028002B0000000000240027002A0083
:10009000040404040404040402020202020203032E
:1000A0000303030301020408102040800102040836
:1000B0001020010204081020830411241FBECFEF7A
:1000C000D8E0DEBFCDBF11E0A0E0B1E0EAECF9E09E
:1000D00002C005900D92A83DB107D9F722E0A8ED26
:1000E000B1E001C01D92A73BB207E1F710E0CDE5FA
:1000F000D0E004C02197FE010E94D804CC35D1077E
:10010000C9F70E94CD020C94E3040C940000CF9236
:10011000DF92EF92FF920F931F93CF93DF936C01C7
:100120007A018B01C0E0D0E0CE15DF0589F0D8015F
:100130006D918D01D601ED91FC910190F081E02D42
:10014000C6010995892B11F47E0102C02196ECCFDE
:10015000C701DF91CF911F910F91FF90EF90DF903A
:10016000CF900895FC01918D828D981761F0828D5A
:10017000DF01A80FB11D5D968C91928D9F5F9F73DB
:10018000928F90E008958FEF9FEF0895FC01918D7D
:10019000828D981731F0828DE80FF11D858D90E0EA
:1001A00008958FEF9FEF0895FC01918D228D892F87
:1001B00090E0805C9F4F821B91098F73992708956F
:1001C00081EE91E00E94D40021E0892B09F420E027
:1001D000822F0895FC01848DDF01A80FB11DA35A61
:1001E000BF4F2C91848D90E001968F739927848F57
:1001F000A689B7892C93A089B1898C9180648C934E
:10020000938D848D981306C00288F389E02D808138
:100210008F7D80830895EF92FF920F931F93CF936A
:10022000DF93EC0181E0888F9B8D8C8D981305C046
:10023000E889F989808185FD24C0F62E0B8D10E0B8
:100240000F5F1F4F0F731127E02E8C8DE8120CC02B
:100250000FB607FCFACFE889F989808185FFF5CFD1
:10026000CE010E94EA00F1CF8B8DFE01E80FF11D57
:10027000E35AFF4FF0820B8FEA89FB89808180620D
:1002800007C0EE89FF896083E889F98980818064ED
:10029000808381E090E0DF91CF911F910F91FF90DB
:1002A000EF900895CF93DF93EC01888D8823C9F0F8
:1002B000EA89FB89808185FD05C0A889B9898C916F
:1002C00086FD0FC00FB607FCF5CF808185FFF2CF0A
:1002D000A889B9898C9185FFEDCFCE010E94EA00F3
:1002E000E7CFDF91CF91089580E090E0892B29F04E
:1002F0000E94E00081110C940000089590E0FC0140
:10030000E859FF4F3491FC01EC55FF4F2491FC015B
:10031000E057FF4FE491EE2309F43BC0332339F15A
:10032000333091F038F43130A9F0323001F584B532
:100330008F7D12C0373091F03830A1F03430B9F4ED
:10034000809180008F7D03C0809180008F778093A3
:1003500080000DC084B58F7784BD09C08091B00046
:100360008F7703C08091B0008F7D8093B000F0E064
:10037000EE0FFF1FE458FF4FA591B4918FB7F8948B
:10038000EC91611103C020952E2301C02E2B2C93DC
:100390008FBF08953FB7F8948091D9019091DA0109
:1003A000A091DB01B091DC0126B5A89B05C02F3FD1
:1003B00019F00196A11DB11D3FBFBA2FA92F982F8B
:1003C0008827820F911DA11DB11DBC01CD0142E006
:1003D000660F771F881F991F4A95D1F708958F924E
:1003E0009F92AF92BF92CF92DF92EF92FF926B01FA
:1003F0007C010E94CA014B015C01C114D104E104DB
:10040000F104F1F00E94CA01DC01CB0188199909BD
:10041000AA09BB09883E9340A105B10570F321E00C
:10042000C21AD108E108F10888EE880E83E0981E10
:10043000A11CB11CC114D104E104F10419F7DDCFF2
:10044000FF90EF90DF90CF90BF90AF909F908F90F4
:1004500008950E94DE041F920F920FB60F9211248E
:100460002F933F934F935F936F937F938F939F93BC
:10047000AF93BF93EF93FF9381EE91E00E94EA0068
:10048000FF91EF91BF91AF919F918F917F916F916C
:100490005F914F913F912F910F900FBE0F901F9042
:1004A00018951F920F920FB60F9211242F938F93CE
:1004B0009F93EF93FF93E091F101F091F20180811E
:1004C000E091F701F091F80182FD12C090818091D6
:1004D000FA018F5F8F732091FB01821751F0E09139
:1004E000FA01F0E0EF51FE4F958F8093FA0101C0C1
:1004F0008081FF91EF919F918F912F910F900FBE6F
:100500000F901F9018951F920F920FB60F92112403
:100510002F933F938F939F93AF93BF938091DD0170
:100520009091DE01A091DF01B091E0013091D801FE
:1005300023E0230F2D3720F40196A11DB11D05C026
:1005400026E8230F0296A11DB11D2093D8018093A8
:10055000DD019093DE01A093DF01B093E001809173
:10056000D9019091DA01A091DB01B091DC010196F3
:10057000A11DB11D8093D9019093DA01A093DB01F5
:10058000B093DC01BF91AF919F918F913F912F91DB
:100590000F900FBE0F901F901895789484B58260CD
:1005A00084BD84B5816084BD85B5826085BD85B517
:1005B000816085BD80916E00816080936E00109295
:1005C0008100809181008260809381008091810010
:1005D00081608093810080918000816080938000A1
:1005E0008091B10084608093B1008091B0008160FF
:1005F0008093B00080917A00846080937A0080912B
:100600007A00826080937A0080917A008160809382
:100610007A0080917A00806880937A001092C100FD
:100620001092B1021092B2021092B3021092B40270
:1006300010927F0210928002109281021092820228
:1006400060ED77E080E090E00E94EF0181EE91E0C4
:100650009093B0028093AF02E091F101F091F2012A
:1006600082E08083E091ED01F091EE011082E09153
:10067000EF01F091F00180E180831092F901E091A7
:10068000F501F091F60186E08083E091F301F091AD
:10069000F401808180618083E091F301F091F401A5
:1006A000808188608083E091F301F091F401808182
:1006B00080688083E091F301F091F40180818F7D67
:1006C00080832FB7F8948091DD019091DE01A09195
:1006D000DF01B091E0012FBF40917F025091800275
:1006E0006091810270918202841B950BA60BB70B5F
:1006F000C297A105B10538F463E070E080E090E0B6
:100700000E94EF01DECF2FB7F8948091DD01909128
:10071000DE01A091DF01B091E0012FBF80937F0245
:1007200090938002A0938102B09382028091AF02E5
:100730009091B002DC01ED91FC910280F381E02DFB
:1007400041E150E066EC71E009956AE070E080E01C
:1007500090E00E94EF0181E08093830240E151E04C
:1007600020E030E0FA01E20FF31F808191819927A8
:10077000FC01EC55FF4F6491FC01E057FF4F849161
:10078000882399F090E0880F991FFC01EA57FF4FEA
:10079000A591B491FC01E458FF4F859194918FB7D6
:1007A000F894EC91E62BEC938FBF2E5F3F4F2E30E9
:1007B0003105C1F6425F5F4FB1E04C325B0781F615
:1007C00037E4C32E0AE010E04EE0D42EC0927C0045
:1007D00080917A00806480937A0080917A0086FD0F
:1007E000FCCF809178002091790090E0922BB801A5
:1007F0000E94B004EB017093B6026093B5026436B8
:1008000071050CF05DC0CB01B8010E94B004D69E0A
:100810004001D79E900C112420E1A22E21E0B22E9F
:10082000E12CF12CF701E80DF91DE45DFE4F80810C
:100830009181892B21F460E0F501808103C061E0A2
:10084000D5018C910E947E01B2E0EB0EF11CE2E03A
:10085000AE0EB11CFEE0EF16F10421F7CE01B80197
:100860000E94B004D89E5001D99EB00C112490E192
:10087000E92E91E0F92EC0E0D0E0FE01EA0DFB1D6B
:10088000E45DFE4F80819181892B29F460E0D701DE
:100890001E968C9103C061E0F70186850E947E015F
:1008A0002296F2E0EF0EF11CCE30D10531F764E66E
:1008B00070E080E090E00E94EF010E94740186CF1A
:1008C000C0E1D1E08881229661E00E947E0181E052
:1008D000CE31D807B9F788EBE82E81E0F82EC0E1D9
:1008E000D1E0D7018D919D917D01892B11F460E0BC
:1008F00001C061E08E850E947E012296B1E0CE317A
:10090000DB0779F7D4CFE1EEF1E01382128288EEB3
:1009100093E0A0E0B0E084839583A683B78384E06E
:1009200091E09183808385EC90E09587848784ECC7
:1009300090E09787868780EC90E0918B808B81ECAC
:1009400090E0938B828B82EC90E0958B848B86EC8D
:1009500090E0978B868B118E128E138E148E0895D5
:1009600097FB072E16F4009407D077FD09D00E945C
:10097000C40407FC05D03EF4909581959F4F0895DF
:10098000709561957F4F0895AA1BBB1B51E107C06D
:10099000AA1FBB1FA617B70710F0A61BB70B881F0F
:1009A000991F5A95A9F780959095BC01CD0108959E
:1009B000EE0FFF1F0590F491E02D099481E090E087
:0A09C000F8940C94E304F894FFCFC0
:1009CA00000000000B018700D400B200C6005201EB
:1009DA000B000A0002000F000E0010000C000800B5
:1009EA0007000600040003000900050000000000DB
:1009FA0000000000000000000100010000000000EB
:100A0A0001000100010001000000000001000000D7
:100A1A0000000100000000000000000000000100CA
:100A2A0001000000010000000000010001000000B8
:100A3A0000000000010000000000010000000000AA
:100A4A00000001000000000000000000000000009B
:100A5A000000000001000100010001000000000088
:100A6A00000000000000000000000000000000007C
:100A7A000000010000000000000001000100000069
:100A8A00000000000000564D4450565F317C315F33
:080A9A00564D4450560D0A00B0
:00000001FF
